:0300000002029E5B
:0C029E00787FE4F6D8FD75811C0202E5B3
:10032A00C0F9A4B0999282F880908883C6A1868E7B
:100003000613FFFFFFFFFFFF011C00021A000001A0
:020013001900D2
:10001E00E4750C48750B02F50AF509D2AFC294D2FD
:10002E0093758910758DFC758B67D2ABD28EE519E1
:10003E00B401FBE4F519E50C24FFF50CE50B34FFD8
:10004E00F50BE50A34FFF50AE50934FFF509E47B03
:10005E000AFAF9F8AF0CAE0BAD0AAC0912017EAF7D
:10006E00038F0DE47B0AFAF9F8AF0CAE0BAD0AACB8
:10007E000912017EE47B0AFAF9F812017EAF038FB2
:10008E000EE47B64FAF9F8AF0CAE0BAD0AAC0912B4
:10009E00017EE47B0AFAF9F812017EAF038F0FE4BA
:1000AE007BE87A03F9F8AF0CAE0BAD0AAC0912017E
:1000BE007EE47B0AFAF9F812017EAF038F10E47B1F
:1000CE00107A27F9F8AF0CAE0BAD0AAC0912017E0F
:1000DE00E47B0AFAF9F812017EAF038F117BA07A46
:1000EE008679017800AF0CAE0BAD0AAC0912017E19
:1000FE00E47B0AFAF9F812017EAF038F1275080538
:10010E00740D2508F8E6700A74132508F876FFD5E5
:10011E0008EEC3E50864809480500302003C740D21
:10012E002508F8E690032A93FF74132508F8A6070E
:04013E00150880DE42
:03001B00020210CE
:10021000C0E0C0D0758DFC758B67051BE51B7002B7
:10022000051AC394E8E51A94034009751A00751B72
:10023000007519017580FFE51C14601D14602714FA
:10024000603114603B1460452405704DC292C29128
:10025000C290051C8513808040C292C291D2900545
:100260001C8514808033C292D291C290051C8515E2
:10027000808026C292D291D290051C85168080196A
:10028000D292C291C290051C851780800CD292C276
:0E02900091D290751C00851880D0D0D0E0323D
:1002AA0002001EE493A3F8E493A34003F68001F24C
:1002BA0008DFF48029E493A3F85407240CC8C33355
:1002CA00C4540F4420C8834004F456800146F6DF24
:1002DA00E4800B0102040810204080900003E47EB1
:1002EA00019360BCA3FF543F30E509541FFEE49319
:1002FA00A360010ECF54C025E060A840B8E493A3E0
:10030A00FAE493A3F8E493A3C8C582C8CAC583CA0A
:10031A00F0A3C8C582C8CAC583CADFE9DEE780BEC2
:0100150000EA
:1001420075F008758200EF2FFFEE33FECD33CDCC74
:1001520033CCC58233C5829BED9AEC99E5829840F7
:100162000CF582EE9BFEED9AFDEC99FC0FD5F0D6D4
:10017200E4CEFBE4CDFAE4CCF9A88222B800C1B9FE
:100182000059BA002DEC8BF084CFCECDFCE5F0CB3C
:10019200F97818EF2FFFEE33FEED33FDEC33FCEB75
:1001A20033FB10D703994004EB99FB0FD8E5E4F930
:1001B200FA227818EF2FFFEE33FEED33FDEC33FC1D
:1001C200C933C910D7059BE99A4007EC9BFCE99A11
:1001D200F90FD8E0E4C9FAE4CCFB2275F010EF2F56
:1001E200FFEE33FEED33FDCC33CCC833C810D70756
:1001F2009BEC9AE899400AED9BFDEC9AFCE899F891
:0E0202000FD5F0DAE4CDFBE4CCFAE4C8F92223
:00000001FF
